{
  "contractName": "MovaiCode",
  "abi": [
    {
      "inputs": [],
      "name": "result0",
      "outputs": [
        {
          "internalType": "string",
          "name": "",
          "type": "string"
        }
      ],
      "stateMutability": "view",
      "type": "function",
      "constant": true
    },
    {
      "inputs": [],
      "name": "result1",
      "outputs": [
        {
          "internalType": "string",
          "name": "",
          "type": "string"
        }
      ],
      "stateMutability": "view",
      "type": "function",
      "constant": true
    },
    {
      "inputs": [
        {
          "internalType": "string",
          "name": "value",
          "type": "string"
        },
        {
          "internalType": "uint256",
          "name": "length",
          "type": "uint256"
        }
      ],
      "name": "split",
      "outputs": [],
      "stateMutability": "nonpayable",
      "type": "function"
    }
  ],
  "bytecode": "0x608060405234801561001057600080fd5b50610693806100206000396000f3fe608060405234801561001057600080fd5b50600436106100415760003560e01c806325ff7a981461004657806360d1081314610062578063ea731f7a14610080575b600080fd5b610060600480360381019061005b91906103c7565b61009e565b005b61006a6101a9565b6040516100779190610458565b60405180910390f35b610088610237565b6040516100959190610458565b60405180910390f35b600080600090505b82811015610151577f2000000000000000000000000000000000000000000000000000000000000000858583818110610108577f4e487b7100000000000000000000000000000000000000000000000000000000600052603260045260246000fd5b9050013560f81c60f81b7effffffffffffffffffffffffffffffffffffffffffffffffffffffffffffff1916141561013e578091505b80806101499061058e565b9150506100a6565b508383600090839261016593929190610496565b600091906101749291906102c5565b50838360018361018491906104c9565b90809261019393929190610496565b600191906101a29291906102c5565b5050505050565b600180546101b69061055c565b80601f01602080910402602001604051908101604052809291908181526020018280546101e29061055c565b801561022f5780601f106102045761010080835404028352916020019161022f565b820191906000526020600020905b81548152906001019060200180831161021257829003601f168201915b505050505081565b600080546102449061055c565b80601f01602080910402602001604051908101604052809291908181526020018280546102709061055c565b80156102bd5780601f10610292576101008083540402835291602001916102bd565b820191906000526020600020905b8154815290600101906020018083116102a057829003601f168201915b505050505081565b8280546102d19061055c565b90600052602060002090601f0160209004810192826102f3576000855561033a565b82601f1061030c57803560ff191683800117855561033a565b8280016001018555821561033a579182015b8281111561033957823582559160200191906001019061031e565b5b509050610347919061034b565b5090565b5b8082111561036457600081600090555060010161034c565b5090565b60008083601f84011261037a57600080fd5b8235905067ffffffffffffffff81111561039357600080fd5b6020830191508360018202830111156103ab57600080fd5b9250929050565b6000813590506103c181610646565b92915050565b6000806000604084860312156103dc57600080fd5b600084013567ffffffffffffffff8111156103f657600080fd5b61040286828701610368565b93509350506020610415868287016103b2565b9150509250925092565b600061042a8261047a565b6104348185610485565b9350610444818560208601610529565b61044d81610635565b840191505092915050565b60006020820190508181036000830152610472818461041f565b905092915050565b600081519050919050565b600082825260208201905092915050565b600080858511156104a657600080fd5b838611156104b357600080fd5b6001850283019150848603905094509492505050565b60006104d48261051f565b91506104df8361051f565b9250827fffffffffffffffffffffffffffffffffffffffffffffffffffffffffffffffff03821115610514576105136105d7565b5b828201905092915050565b6000819050919050565b60005b8381101561054757808201518184015260208101905061052c565b83811115610556576000848401525b50505050565b6000600282049050600182168061057457607f821691505b6020821081141561058857610587610606565b5b50919050565b60006105998261051f565b91507fffffffffffffffffffffffffffffffffffffffffffffffffffffffffffffffff8214156105cc576105cb6105d7565b5b600182019050919050565b7f4e487b7100000000000000000000000000000000000000000000000000000000600052601160045260246000fd5b7f4e487b7100000000000000000000000000000000000000000000000000000000600052602260045260246000fd5b6000601f19601f8301169050919050565b61064f8161051f565b811461065a57600080fd5b5056fea26469706673582212209115e40c1b6cdb0b1c3cf2e764bb0dae0419646b24cd20d0bcc8d23ed213c80864736f6c63430008010033",
  "immutableReferences": {},
  "source": "pragma solidity 0.8.1;\n\n\ncontract MovaiCode {\n    string public result0;\n    string public result1;\n\n    function split(string calldata value, uint256 length) public {\n        uint256 index;\n        for (uint256 i = 0; i < length; i++) {\n            if (bytes(value)[i] == \" \") {\n                index = i;\n            }\n        }\n\n        result0 = value[:index];\n        result1 = value[index+1:];\n    }\n}\n",
  "sourcePath": "/home/thykof/Documents/movaicode3/contracts/movaicode.sol",
  "compiler": {
    "name": "solc",
    "version": "0.8.1+commit.df193b15.Emscripten.clang"
  },
  "schemaVersion": "3.3.4",
  "updatedAt": "2021-02-27T18:40:47.905Z",
  "networkType": "ethereum",
  "devdoc": {
    "kind": "dev",
    "methods": {},
    "version": 1
  },
  "userdoc": {
    "kind": "user",
    "methods": {},
    "version": 1
  }
}